{
  "contractName": "QuizContract",
  "abi": [
    {
      "inputs": [
        {
          "internalType": "address",
          "name": "",
          "type": "address"
        }
      ],
      "name": "quizzes",
      "outputs": [
        {
          "internalType": "string",
          "name": "username",
          "type": "string"
        },
        {
          "internalType": "uint256",
          "name": "marks",
          "type": "uint256"
        }
      ],
      "stateMutability": "view",
      "type": "function",
      "constant": true
    },
    {
      "inputs": [
        {
          "internalType": "string",
          "name": "_username",
          "type": "string"
        },
        {
          "internalType": "uint256",
          "name": "_marks",
          "type": "uint256"
        }
      ],
      "name": "submitQuiz",
      "outputs": [],
      "stateMutability": "nonpayable",
      "type": "function"
    },
    {
      "inputs": [
        {
          "internalType": "address",
          "name": "user",
          "type": "address"
        }
      ],
      "name": "getQuiz",
      "outputs": [
        {
          "internalType": "string",
          "name": "",
          "type": "string"
        },
        {
          "internalType": "uint256",
          "name": "",
          "type": "uint256"
        }
      ],
      "stateMutability": "view",
      "type": "function",
      "constant": true
    }
  ],
  "bytecode": "0x608060405234801561001057600080fd5b5061073d806100206000396000f3fe608060405234801561001057600080fd5b50600436106100415760003560e01c806303f31e6d146100465780630571cb3d146100775780630579141e146100a8575b600080fd5b610060600480360381019061005b9190610448565b6100c4565b60405161006e92919061050d565b60405180910390f35b610091600480360381019061008c9190610448565b6101c4565b60405161009f92919061050d565b60405180910390f35b6100c260048036038101906100bd9190610471565b610270565b005b60606000806000808573ffffffffffffffffffffffffffffffffffffffff1673ffffffffffffffffffffffffffffffffffffffff16815260200190815260200160002060405180604001604052908160008201805461012290610638565b80601f016020809104026020016040519081016040528092919081815260200182805461014e90610638565b801561019b5780601f106101705761010080835404028352916020019161019b565b820191906000526020600020905b81548152906001019060200180831161017e57829003601f168201915b505050505081526020016001820154815250509050806000015181602001519250925050915091565b60006020528060005260406000206000915090508060000180546101e790610638565b80601f016020809104026020016040519081016040528092919081815260200182805461021390610638565b80156102605780601f1061023557610100808354040283529160200191610260565b820191906000526020600020905b81548152906001019060200180831161024357829003601f168201915b5050505050908060010154905082565b6102786102f9565b82816000018190525081816020018181525050806000803373ffffffffffffffffffffffffffffffffffffffff1673ffffffffffffffffffffffffffffffffffffffff16815260200190815260200160002060008201518160000190805190602001906102e6929190610313565b5060208201518160010155905050505050565b604051806040016040528060608152602001600081525090565b82805461031f90610638565b90600052602060002090601f0160209004810192826103415760008555610388565b82601f1061035a57805160ff1916838001178555610388565b82800160010185558215610388579182015b8281111561038757825182559160200191906001019061036c565b5b5090506103959190610399565b5090565b5b808211156103b257600081600090555060010161039a565b5090565b60006103c96103c48461056e565b61053d565b9050828152602081018484840111156103e157600080fd5b6103ec8482856105f6565b509392505050565b600081359050610403816106d9565b92915050565b600082601f83011261041a57600080fd5b813561042a8482602086016103b6565b91505092915050565b600081359050610442816106f0565b92915050565b60006020828403121561045a57600080fd5b6000610468848285016103f4565b91505092915050565b6000806040838503121561048457600080fd5b600083013567ffffffffffffffff81111561049e57600080fd5b6104aa85828601610409565b92505060206104bb85828601610433565b9150509250929050565b60006104d08261059e565b6104da81856105a9565b93506104ea818560208601610605565b6104f3816106c8565b840191505092915050565b610507816105ec565b82525050565b6000604082019050818103600083015261052781856104c5565b905061053660208301846104fe565b9392505050565b6000604051905081810181811067ffffffffffffffff8211171561056457610563610699565b5b8060405250919050565b600067ffffffffffffffff82111561058957610588610699565b5b601f19601f8301169050602081019050919050565b600081519050919050565b600082825260208201905092915050565b60006105c5826105cc565b9050919050565b600073ffffffffffffffffffffffffffffffffffffffff82169050919050565b6000819050919050565b82818337600083830152505050565b60005b83811015610623578082015181840152602081019050610608565b83811115610632576000848401525b50505050565b6000600282049050600182168061065057607f821691505b602082108114156106645761066361066a565b5b50919050565b7f4e487b7100000000000000000000000000000000000000000000000000000000600052602260045260246000fd5b7f4e487b7100000000000000000000000000000000000000000000000000000000600052604160045260246000fd5b6000601f19601f8301169050919050565b6106e2816105ba565b81146106ed57600080fd5b50565b6106f9816105ec565b811461070457600080fd5b5056fea264697066735822122071791cebe3e5855f109cc58268a5e70422c363476b82d462b251c46e1726c21f64736f6c63430008000033",
  "immutableReferences": {},
  "source": "// SPDX-License-Identifier: MIT\r\npragma solidity ^0.8.0;\r\n\r\ncontract QuizContract {\r\n    struct Quiz {\r\n        string username;\r\n        uint marks;\r\n    }\r\n\r\n    mapping(address => Quiz) public quizzes;\r\n\r\n    function submitQuiz(string memory _username, uint _marks) public {\r\n        Quiz memory newQuiz;\r\n        newQuiz.username = _username;\r\n        newQuiz.marks = _marks;\r\n        quizzes[msg.sender] = newQuiz; // Associate the quiz with the sender's address\r\n    }\r\n\r\n    function getQuiz(address user) public view returns (string memory, uint) {\r\n        Quiz memory quiz = quizzes[user];\r\n        return (quiz.username, quiz.marks);\r\n    }\r\n}\r\n",
  "sourcePath": "D:\\blockchain_project\\contracts\\QuizContract.sol",
  "compiler": {
    "name": "solc",
    "version": "0.8.0+commit.c7dfd78e.Emscripten.clang"
  },
  "schemaVersion": "3.4.16",
  "updatedAt": "2024-05-13T20:21:03.874Z",
  "networkType": "ethereum",
  "devdoc": {
    "kind": "dev",
    "methods": {},
    "version": 1
  },
  "userdoc": {
    "kind": "user",
    "methods": {},
    "version": 1
  }
}